:020000040800F2
:1000000008040020D50000086709000865090008F9
:1000100000000000000000000000000000000000E0
:10002000000000000000000000000000AF09000810
:100030000000000000000000AD090008B109000840
:10004000E7000008E7000008E7000008E7000008F4
:10005000E7000008E7000008E7000008E7000008E4
:10006000E7000008E7000008E7000008E7000008D4
:10007000E7000008E7000008E7000008E7000008C4
:10008000E7000008E7000008E7000008E7000008B4
:10009000E7000008E7000008E7000008E7000008A4
:1000A000E7000008E7000008E7000008E700000894
:1000B000E7000008E7000008E7000008E700000884
:1000C0000348854600F02AF800480047950A0008D2
:1000D000080400200448804704480047FEE7FEE784
:1000E000FEE7FEE7FEE7FEE7190A0008C100000888
:1000F00030B50B46014600202022012409E00D46C0
:10010000D5409D4205D31D469540491B2546954047
:1001100040191546521E002DF1DC30BD064C01255C
:10012000064E05E0E36807CC2B430C3C984710349F
:10013000B442F7D3FFF7C8FFF80A0008180B00080D
:10014000F8B5002393E0224601249C40A4462240B7
:100150007ED04C68022C01D0122C0CD1DC08A400FB
:1001600027183C6A5D07ED0E0F26AE40B4430E69BA
:10017000AE4026433E6205685E000324B4400F791A
:10018000A543BF07BF0FB7402F4307604D68012D40
:1001900005D0022D03D0112D01D0122D0ED185686E
:1001A000CF68A543B7402F43876047686546AF4394
:1001B0000D79ED06ED0F9D403D434560C568A543B3
:1001C0008C68B4402C43C4604C68E4004ED52B4C82
:1001D000A56901263543A561A4699D0834400094B2
:1001E000274CAD002F19BC689D072E0F0F25B54079
:1001F000AC430925ED06A84201D1002514E0214DAC
:10020000A84201D101250FE01F4DA84201D10225CE
:100210000AE01E4DA84201D1032505E01C4DA8426D
:1002200001D1042500E00525B5402543BD60194CEA
:1002300025684E689543F60300D51543256065682B
:100240004E689543B60300D515436560A56800E088
:100250000CE04E689543F60200D51543A560E568AD
:100260004E689543B60200D51543E5605B1C0A68ED
:100270001446DA4000D066E7F8BD000000100240E6
:10028000000001400004004800080048000C00483D
:100290000010004800040140002A01D0816170472D
:1002A000816270470148006870470000000000202C
:1002B00002480168491C01607047000000000020EE
:1002C00010B506480168102211430160002000F0BB
:1002D00007F800F017F8002010BD000000200240D1
:1002E00010B5044600F0DEF87D21C900FFF700FFDD
:1002F00000F01CFB00222146501E00F025F80020D3
:1003000010BD000008B50F488169012211438161C9
:10031000816911400091C26901040A43C261C06948
:100320000022084000901146501F00F00DF80022F6
:100330001146901E00F008F800221146501E00F0F1
:1003400003F808BD0010024010B500F00DFB10BD11
:10035000F8B505464E480E460068C007C00FB042CB
:100360000AD24B48016849084900314301600068DE
:10037000C007C00FB04270D12878464C800705D521
:100380006068F0218843A968084360602878C00746
:1003900053D06868012817D0022818D0032819D034
:1003A00021688907002958DA6168890889000143B2
:1003B0006160FFF777FF69680746012913D00229BA
:1003C0001DD0032927D034E021688903EAE721689A
:1003D0008901E7E7616BC903E4E7FFF763FFC11B2E
:1003E0002D48814223D860680007800F0128F4D18E
:1003F00023E0FFF757FFC11B2748814217D86068E9
:100400000007800F0228F4D117E0FFF74BFFC11B54
:10041000214881420BD860680007800F0328F4D17F
:100420000BE0FFF73FFFC11B1B48814201D90320AE
:10043000F8BD60680007800FF3D115480168C9074F
:10044000C90FB1420BD90168490849003143016025
:100450000068C007C00FB04201D00120F8BD287865
:10046000400706D56068072109028843E968084308
:10047000606000F01DF86168084A0906090F515CC8
:10048000C840074908600020FFF72AFF0020F8BD98
:10049000002002400010024088130000E80A000813
:1004A000040000200148006870470000040000209C
:1004B00030B516A30FCB89B06C460FC417A30FCB72
:1004C0000FC41A494A680C20144604401848042CEA
:1004D00005D0184B082C04D00C2C00D1184609B0BC
:1004E00030BD9402240F6D462C5DC96A04AD090726
:1004F000090FD203695C920F022A02D0032A00D1AD
:100500001846FFF7F5FD6043E9E700000203040524
:10051000060708090A0B0C0D0E0F10100102030448
:1005200005060708090A0B0C0D0E0F1000100240FB
:1005300000127A00006CDC02FEB504460078F04E32
:10054000F04DC00748D068680007800F01281FD011
:1005500068680007800F022804D16868C003800F14
:10056000022815D06168012919D0012080040029D2
:1005700001D0052917D02968B14329602968814332
:100580002960606800281BD0FFF78CFE074613E047
:100590002868800320D56068002876D01CE0286891
:1005A00030432860EDE7296801432960F7E7FFF74A
:1005B00079FEC01B642869D828688003F7D50BE052
:1005C000FFF770FE074604E0FFF76CFEC01B6428CF
:1005D000F1D828688003F7D4207880073ED5686872
:1005E0000007800F14D068680007800F022804D12C
:1005F0006868C003800F01280AD0E06800282868D6
:100600001DD0012108432860FFF74CFE07460BE090
:10061000286880070BD5E068012836D107E0FFF78E
:1006200041FEC01B0228C6D828688007F7D5286875
:10063000F82188432169C900084328600EE040087A
:1006400040002860FFF72EFE074604E0FFF72AFE71
:10065000C01B0228AFD828688007F7D4207800078D
:1006600024D5E0690028686A11D001210843686236
:10067000FFF718FE074604E0FFF714FEC01B022830
:1006800099D8686A8007F7D510E036E1D1E04008D4
:1006900040006862FFF706FE074604E0FFF702FE2F
:1006A000C01B022887D8686A8007F7D420780427FF
:1006B0004007002861DA00200190E869C00008D4F2
:1006C000E969B8060143E961E96901400120009147
:1006D00001908D480168C90511D401688215114344
:1006E0000160FFF7DFFD009005E0FFF7DBFD0099FB
:1006F000401A642897D884480068C005F5D5A068DA
:1007000001280AD0002801D0052811D0286A400805
:1007100040002862286AB84302E0286A01210843A1
:100720002862A068002812D0FFF7BCFD00900AE004
:10073000286A38432862F0E7FFF7B4FD0099411AB0
:100740007248814275D8286A8007F5D50DE0FFF719
:10075000A9FD009006E0FFF7A5FD0099411A6B483E
:10076000814266D8286A8007F5D40198002804D011
:10077000E969012000078143E9612078C00635D589
:10078000606901280CD0401D686B24D03843686331
:10079000686B400840006863FFF784FD074622E06D
:1007A000686B38436863686B012108436863FFF72F
:1007B00079FD074604E0FFF775FDC01B022838D815
:1007C000686B8007F7D5686BF8218843A169C90079
:1007D000084368630AE0B8436863F4E7FFF762FD23
:1007E000C01B022825D8686B8007F7D420788006C4
:1007F00037D568680007800F032813D068680007A2
:10080000800F022804D16868C003800F032809D034
:10081000206A0028686B16D030436863FFF742FDFA
:1008200006460CE0686BC0031BD5206A012864D122
:1008300017E05BE0FFF736FD801B022856D8686B97
:10084000C003F7D50DE0B0436863FFF72BFD064604
:1008500004E0FFF727FD801B022847D8686BC00320
:10086000F7D4606A002846D069680907890F022911
:1008700043D0012636060228286805D0B0432860F8
:10088000FFF710FD044633E0B0432860FFF70AFD90
:10089000074604E0FFF706FDC01B022826D828689B
:1008A0008001F7D4E86A216B000900010843E8627F
:1008B000A16AE06A084369687B22D2039143084336
:1008C0006860286830432860FFF7ECFC044604E0C9
:1008D000FFF7E8FC001B022808D828688001F7D53C
:1008E00009E0FFF7DFFC001B022801D90320FEBD51
:1008F00028688001F5D40020FEBD0120FEBD000067
:100900000000010000100240007000408813000049
:10091000042204490428086902D090430861704702
:100920001043FBE700E000E070470000094910B504
:10093000401E884201D9012010BD074C606103218F
:10094000081F00F011F80020A0610720206100209E
:1009500010BD0000FFFFFF0000E000E010B5FFF752
:10096000E3FF10BDFEE770478307FF22DB0E9A40CE
:100970008907090E994000280BDA0007000F083894
:10098000830808489B001818C36993430B43C3614D
:100990007047830804489B001B181868904308435D
:1009A0001860704700ED00E000E400E07047704719
:1009B00010B5FFF77DFCFFF7D1FF10BD10B592B069
:1009C000022000900120039000241020099404903C
:1009D0006846FFF7B1FD002800D0FEE707200D9024
:1009E0000E940F94002110940DA8FFF7B1FC00287D
:1009F00000D0FEE7FFF756FD7D21C900FFF778FB29
:100A0000FFF794FF0420FFF783FF00221146501EDA
:100A1000FFF79AFC12B010BD124801680122114381
:100A200001604168104A1140416001680F4A11405D
:100A300001600168012292049143016041683F22F4
:100A4000120491434160C16A09090901C162016B45
:100A5000074A11400163416B490849004163002185
:100A600081607047001002400CB8FF08FFFFF6FEDF
:100A70002CFEFCFF02E008C8121F08C1002AFAD1B0
:100A800070477047002001E001C1121F002AFBD10E
:100A90007047000086B0FFF713FCFFF78FFF104888
:100AA00042690121C9040A43426140690D4C084072
:100AB0000590002240212046FFF7EEFB40200090E9
:100AC0000021012002910391019069462046FFF721
:100AD00037FB012240212046FFF7DEFBFEE7000046
:100AE0000010024000080048000000000000000064
:100AF0000102030406070809180B00080000002083
:100B000008000000740A0008200B000808000020FC
:100B100000040000840A00080000000000127A00AF
:04000005080000C12E
:00000001FF
