:020000040800F2
:1000000070050020D500000811110008990D0008A6
:1000100000000000000000000000000000000000E0
:100020000000000000000000000000009111000826
:1000300000000000000000005911000893110008A2
:10004000E7000008E7000008E7000008E7000008F4
:10005000E7000008E7000008E7000008E7000008E4
:10006000E7000008E7000008E7000008E7000008D4
:10007000E7000008E7000008E7000008E7000008C4
:10008000E7000008E7000008E7000008E7000008B4
:10009000E7000008E7000008E7000008E7000008A4
:1000A000E7000008E7000008E7000008E700000894
:1000B000E7000008F9140008E7000008E70000085E
:1000C0000348854600F072F90048004735150008DE
:1000D000700500200448804704480047FEE7FEE71B
:1000E000FEE7FEE7FEE7FEE7A1110008C1000008F9
:1000F00030B50B46014600202022012409E00D46C0
:10010000D5409D4205D31D469540491B2546954047
:1001100040191546521E002DF1DC30BD10B50022ED
:1001200000E0521C835C8C5CA34201D1002BF8D10F
:10013000D8B2E1B2401A10BD70B5104D002800D100
:100140002868002414E00A4602E09E4203D0521CB4
:100150001378002BF9D1DAB2224307D0002B06D056
:10016000002C04D000210170401C04E00446401C17
:100170000678002EE7D12860204670BD0C000020D4
:1001800070B5064601F0C2F9046805460A2200214E
:10019000304600F091F82C6070BD024670B54A40C0
:1001A000D30FDB0740002DD04A002AD0010E140ED9
:1001B000000212020919400A520A8418E501044695
:1001C0005443000A120A2E045043A4194219200C69
:1001D000C543AA18120C0125AD03521C5219120472
:1001E0007F39240400D0521C104301D44000491E22
:1001F000C2B20C06C0092018401C4008802A02D058
:1002000003E0002070BD40084000002900DA002013
:10021000184370BD70B502464A40D50F40004A00F1
:10022000ED0740085208002814D0002A12D0C40D4F
:10023000D30D41020120C0055202490A520AE41AB4
:10024000091812187D34914201D3641C00E0490062
:10025000002C01DA002070BD0023914201D3891ADD
:100260000343400849000028F7D100290AD09142F1
:1002700002D10121C90705E0914201D2012101E02B
:100280000121C943E005C018401900F04DF870BDC8
:10029000410040020122400AD205090E80187F2940
:1002A00001DA00207047962903DC9622511AC840D3
:1002B0007047963988407047F7B5009C0F46002676
:1002C0002578641C002D05D000F082F80068405DA0
:1002D000C007F5D12B2D02D02D2D18D0641E394624
:1002E0002046029A00F078F8002F04D03968A14225
:1002F00001D1009939607105022400290BDA4042CE
:10030000002803DD01F002F90460A007FEBD012012
:1003100080020643E3E70028F8DA01F0F7F804600A
:100320000048FEBDFFFFFF7F002904DA401C4900A2
:1003300001D140084000704770B40024050C05D17D
:100340001024000402D1002921D01124050E01D16E
:1003500000020834050F01D10001241D850F01D1D1
:100360008000A41C002801DB4000641C002908D088
:1003700020252E1B0D46F540A14000D00121294328
:10038000084301061B1B000ADB1D02D5002070BCC0
:100390007047DB05181880180029F8DA401C49005E
:1003A000F5D170BC4008400070470000064C0125A4
:1003B000064E05E0E36807CC2B430C3C984710340D
:1003C000B442F7D3FFF780FE001B0008201B000893
:1003D00000487047FC1A0008F7B582B0029C00275D
:1003E0002078641C15460197302802D0002D15D0C6
:1003F00015E020780127641C782804D0582802D002
:10040000002D09D00BE0002D01D0102D07D10027C1
:1004100010252078641C02E0082500E00A2500264B
:10042000009610E00099012769430818020C29463C
:1004300080B2714300908E183804864201D30120A7
:1004400001902078641C294600F019F80028E9DAA8
:100450000398002805D0002F01D0641E00E0029C04
:1004600004600198002806D001F050F802210160D4
:10047000C81E05B0F0BD009930040843F9E73A28DA
:1004800000D23038202302469A43412A01D3104635
:100490003738884201D30020C0437047F8B50025A3
:1004A0000446403400952278012A3BD00122227074
:1004B00003689E68760776D43F4F4E68BE4254D09C
:1004C0009E6A0F78BA4016439E620123826B1B0717
:1004D0009A421FD0012A1DD0022A1BD0032A19D00C
:1004E000042A17D0052A15D0062A13D0072A11D0BE
:1004F00002688B6856697607760FB3420AD0536953
:10050000DB08DB005361006842690B7A5B075B0F15
:100510001A4342610868102806D0112804D0122816
:1005200002D045E00220F8BD244A9368102809D083
:1005300011280AD0012000060343936008681028A0
:1005400006D035E00120C005F6E701208005F3E77D
:100550001C481B490068FFF7CBFD0A21484300E017
:10056000401E00900028FBD122E0986A0E78B2402D
:10057000904398620868102803D0112801D01228EF
:1005800016D10E498A68102807D0112808D00120FA
:10059000000682438A600BE005E00120C005F8E711
:1005A00001208005F5E7416C2022114341640125BB
:1005B000002020702846F8BD0110000000270140EF
:1005C00040420F0008000020F8B50025044600282E
:1005D00003D0606C002802D008E00120F8BD0020A4
:1005E000A06440210855204600F0A8F8606C102255
:1005F000C006002870DB2068816849076CD4616CF4
:100600001301994302231943616481688907890FA3
:10061000012905D10168C9070FD1C16809040CD4AB
:10062000C16818239943A3681943C1602068016910
:10063000636889008908194301612068C1683D4BDE
:100640001940C160A069E1698003C9030843216AB8
:100650004B031843636B012B02D001231B0300E003
:1006600000231843E36818432369022B09D00023B1
:100670001843236B666A5B0018430123012E02D0E6
:100680000AE00423F4E7002927D0616C20263143D7
:100690006164A16C1943A164A16A0E46FF3EC23E8B
:1006A00002D0E66A314308432168CE680643CE6033
:1006B0000126A16B3607B14213D0012911D00229BE
:1006C0000FD003290DD004290BD0052909D0062904
:1006D00007D0072905D010E028E0012109040843CC
:1006E000DAE721684E69F608F6004E6121684E6926
:1006F000278F7F077F0F3E434E612168C9680E4EEA
:100700003140814207D10020A064606C80088000E5
:10071000401C606408E0606C022188431043606400
:10072000A06C1843A06401252846F8BD606C1043F6
:100730006064F8E71902FEFFE7FF3F8300B5006839
:100740000C4987B0884212D10B48826941150A438F
:1007500082618069084005903F200090032001904D
:100760000020029009206946C00600F015F807B085
:1007700000BD0000002401400010024031B500F02F
:10078000C1F8009C0546601C00D0641C00F0BAF85B
:10079000401BA042FAD338BDF8B5002393E02246AF
:1007A00001249C40A44622407ED04C68022C01D0FB
:1007B000122C0CD1DC08A40027183C6A5D07ED0E52
:1007C0000F26AE40B4430E69AE4026433E62056834
:1007D0005E000324B4400F79A543BF07BF0FB740A5
:1007E0002F4307604D68012D05D0022D03D0112D38
:1007F00001D0122D0ED18568CF68A543B7402F4395
:10080000876047686546AF430D79ED06ED0F9D4063
:100810003D434560C568A5438C68B4402C43C46023
:100820004C68E4004ED52B4CA56901263543A561E3
:10083000A4699D0834400094274CAD002F19BC6872
:100840009D072E0F0F25B540AC430925ED06A842A4
:1008500001D1002514E0214DA84201D101250FE06E
:100860001F4DA84201D102250AE01E4DA84201D128
:10087000032505E01C4DA84201D1042500E0052513
:10088000B5402543BD60194C25684E689543F60375
:1008900000D51543256065684E689543B60300D5BD
:1008A00015436560A56800E00CE04E689543F602CC
:1008B00000D51543A560E5684E689543B60200D59E
:1008C0001543E5605B1C0A681446DA4000D066E711
:1008D000F8BD000000100240000001400004004884
:1008E00000080048000C00480010004800040140C7
:1008F00042694A4042617047002A01D081617047D5
:1009000081627047014800687047000004000020C1
:1009100002480168491C0160704700000400002083
:1009200010B506480168102211430160002000F054
:1009300007F800F017F8002010BD0000002002406A
:1009400010B5044600F034F87D21C900FFF7D0FB54
:1009500000F036F800222146501E00F025F8002055
:1009600010BD000008B50F48816901221143816163
:10097000816911400091C26901040A43C261C069E2
:100980000022084000901146501F00F00DF8002290
:100990001146901E00F008F800221146501E00F08B
:1009A00003F808BD0010024010B500F0B3FB10BD05
:1009B00001480068704700000800002070470000F0
:1009C000094910B5401E884201D9012010BD074CCD
:1009D00060610321081F00F09DFB0020A06107203B
:1009E0002061002010BD0000FFFFFF0000E000E0DC
:1009F00010B5FFF7E3FF10BD70B5034620331A7F33
:100A0000012A27D001241C7702225A770326CA68BC
:100A10003602B2438E6800253243A602B2434E68C6
:100A200000683243E602B2430E6832432603B24303
:100A30000E6932436603B2434E6989693243A603A5
:100A4000B2430A43E603B2430A4342645C771D772C
:100A5000002070BD022070BD70B502462032137FA9
:100A6000012B1BD001231377022454770468656897
:100A70007026B5436560046865680E683543656037
:100A80000468A5688026B543A56000688468496845
:100A90000C43846053770020107770BD022070BD36
:100AA00070B5040005D025462035687F002802D0A7
:100AB00006E0012070BD00202877204600F00AF8EB
:100AC00002206877211D206800F098FB01206877DC
:100AD000002070BD08B50B4A01680B48914205D152
:100AE0008269C1140A438261806907E0074A914222
:100AF00006D1C26902210A43C261C0690840009060
:100B000008BD0000002C014000100240000400401D
:100B1000F8B5054604462035287F012817D001275F
:100B20002F7702206877226890687726FF23B043EA
:100B30001B02984390600868502837D00EDC2028AC
:100B400057D006DC00284ED0102840D14EE00220BD
:100B5000F8BD302850D0402839D13CE060282DD055
:100B6000702817D001221203801A0ED090422ED185
:100B7000CB684A688968206800F08AFB2068816831
:100B8000012292031143816021E020688168C90835
:100B9000C900F8E7CB684A688968206800F078FBEC
:100BA00021688868B0433043886010E0CA684968AB
:100BB000206800F07DFC5021206806E0CA68496882
:100BC000206800F086FC6021206800F06CFB6F77E5
:100BD00000202877F8BDCA684968206800F068FCE2
:100BE00040212068F1E700212068EEE7102120680D
:100BF000EBE720212068E8E730212068E5E70000E6
:100C000010B5174C0268032300209B02022186B016
:100C1000A24208D10290039001910491092000930F
:100C20006946C0060AE00124A407A2420AD1029044
:100C3000019104910390009369460A48FFF7ACFDC7
:100C400006B010BD084B9A42FAD10F2292010290D1
:100C5000039001910490009269460448EEE7000079
:100C6000002C014000040048000400400008004837
:100C7000F8B5064604462036307F0D4601280DD0D3
:100C800001203077022070770427002A08D0042A38
:100C900016D0082A2AD00C2A4DD137E00220F8BD00
:100CA000206800F009FB20688169082211438161F6
:100CB00020688169B9438161206881692A6912E0ED
:100CC000206800F03DFB206882690121C9020A43C7
:100CD00082612068816901229202914381612068CA
:100CE00081692A6912021143816124E0206800F0C1
:100CF00067FB2068C26908210A43C2612068C16994
:100D0000B943C1612068C1692A6912E0206800F016
:100D100099FB2068C1690122D2021143C161206898
:100D2000C269012189028A43C2612068C1692A69B6
:100D300012021143C1610120707700203077F8BDA5
:100D400070B5040005D025462035687F002802D004
:100D500006E0012070BD00202877204600F00AF848
:100D600002206877211D206800F048FA012068778A
:100D7000002070BD08B5006801218907884207D1AD
:100D80000448C16901221143C161C069104000904B
:100D900008BD000000100240FEE70000FEB5294932
:100DA0002948002412C001250426011D046070C1D9
:100DB000046144618461C4614462FF21C562C2313F
:100DC000846201620838FFF7FFFB002800D0FEE7CD
:100DD00001200003019000040290009469461A4823
:100DE000FFF75CFB002800D0FEE769461648009537
:100DF000FFF754FB002800D0FEE702200090694670
:100E00001148FFF74BFB002800D0FEE703200090BD
:100E100069460D48FFF742FB002800D0FEE769460F
:100E200009480096FFF73AFB002800D0FEE70520AE
:100E3000009069460448FFF731FB002800D0FEE728
:100E4000FEBD00000024014060000020F0B53448E1
:100E500087B042690121C9040A43426142690A40DC
:100E60000592426989100A43426142690A4005922B
:100E7000426949000A43426142690A400592426957
:100E800089000A4342614069264C0840264F05907C
:100E9000002221463846FFF72FFD0F26B601092014
:100EA00000223146C006FFF727FD0022F9211F4826
:100EB000FFF722FD002204211D48FFF71DFD0094CD
:100EC0000024012501950294694638460394FFF7F2
:100ED00063FC092002946946C006009601950394BC
:100EE000FFF75AFCF920009002946946019503949B
:100EF0000E48FFF751FC0F4800900F4801906946DB
:100F000002940A48FFF748FC0420009002946946C6
:100F1000019503940648FFF73FFC07B0F0BD0000C1
:100F2000001002400F1C00000008004800040048A8
:100F3000000C0048041000000000111010B52B49EF
:100F40002B4894B0002412C0046044608460C460E4
:100F500004610838FFF7A4FD002800D0FEE7012057
:100F600000030E900EA92248FFF7D2FD002800D002
:100F7000FEE71F48FFF7E4FE002800D0FEE71294CA
:100F800012A91B481394FFF767FD002800D0FEE765
:100F90006020059401940090029403940494082224
:100FA000694606941248FFF763FE002800D0FEE76A
:100FB0000C2269460E48FFF75BFE002800D0FEE7D2
:100FC00001200794400308940C9009940A940B9410
:100FD00007A90D940648FFF70FFD002800D0FEE793
:100FE0000348FFF70DFE14B010BD0000002C0140B7
:100FF000AC00002010B5012118488AB089070024F0
:1010000012C004604460846004610838FFF798FEF1
:10101000002800D0FEE7079407A910480894FFF7BE
:101020001BFD002800D0FEE7602000900194029490
:101030000822694604940948FFF71AFE002800D0E8
:10104000FEE70C2269460548FFF712FE002800D093
:10105000FEE70248FFF7D4FD0AB010BDEC00002007
:1010600010B5294929488EB0002412C0046044609C
:10107000846004610838FFF713FD002800D0FEE704
:1010800001200003079007A92048FFF741FD002831
:1010900000D0FEE71D48FFF753FE002800D0FEE712
:1010A0000B940BA919480C94FFF7D6FC002800D02C
:1010B000FEE76020009001940294002269460494A7
:1010C0001248FFF7D5FD002800D0FEE7042269464C
:1010D0000E48FFF7CDFD002800D0FEE70822694644
:1010E0000A48FFF7C5FD002800D0FEE70C2269463C
:1010F0000648FFF7BDFD002800D0FEE70348FFF7D4
:101100007FFD0EB010BD0000000400402C01002047
:10111000704700008307FF22DB0E9A408907090E03
:10112000994000280BDA0007000F083883080848A8
:101130009B001818C36993430B43C361704783082E
:1011400004489B001B1818689043084318607047B8
:1011500000ED00E000E400E07047000010B50B4C2B
:10116000012208212046FFF7C7FB0022102120465C
:10117000FFF7C2FB012220212046FFF7BDFB002222
:1011800040212046FFF7B8FB10BD000000040048D6
:10119000704710B5FFF7BCFBFFF72AFC10BD00003D
:1011A000124801680122114301604168104A114050
:1011B000416001680F4A11400160016801229204F8
:1011C0009143016041683F22120491434160C16A2A
:1011D00009090901C162016B074A11400163416BB2
:1011E00049084900416300218160704700100240B6
:1011F0000CB8FF08FFFFF6FE2CFEFCFFF0B50268FE
:101200001D4B0124A4071D4D984203D0A04201D0DC
:10121000A84203D17026B2434E683243184E194F8C
:1012200098420DD0A0420BD0A84209D0164CA04243
:1012300006D0B04204D0B84202D0144CA04204D12F
:1012400003242402A243CC6822438024A2434C6995
:10125000224302608A68C2620A688262984206D0AB
:10126000B04204D0B84202D0084A904201D1096984
:10127000016301214161F0BD002C014000040040E8
:10128000004001400044014000200040004801406F
:1012900030B58468FF252D021B021343AC430B437A
:1012A0002343836030BD826870239A430A43072139
:1012B0000A43826070470000F0B5026A520852008B
:1012C0000262056A436882697024A24392080C682E
:1012D00092001443022295438A68164E2A43144D05
:1012E000A84207D0B04205D0134FB84202D0134FE6
:1012F000B84206D10827BA43CF6817430422974360
:101300003A46A84207D0B04205D00B4DA84202D0C1
:101310000A4DA84206D103252D02AB434D691D435A
:101320008B692B4343608461496841630262F0BD6D
:10133000002C0140004001400044014000480140B1
:1013400070B5026A10239A430262056A4268836993
:1013500073242402A3430C6824021C4320239D43CE
:101360008B681B012B43124DA84208D11D46CB6848
:101370008026B5431B012B434025AB4308E00D4DB0
:10138000A84205D00C4DA84202D00C4DA84208D16D
:101390000325AD02AA434D69AD0015438A69920049
:1013A0002A434260846149688163036270BD000022
:1013B000002C014000400140004401400048014031
:1013C00070B5026AFF2301339A430262056A4368DB
:1013D000C2697024A24392080C689200144301224F
:1013E000520295438A6812022A43124DA84208D13C
:1013F0001546CA68C614B54312022A430515AA4306
:1014000008E00D4DA84205D00C4DA84202D00C4D6D
:10141000A84208D103252D03AB434D692D011D437F
:101420008B691B012B434360C4614968C16302623D
:1014300070BD0000002C014000400140004401400C
:101440000048014030B5026A01231B039A4302623F
:10145000046A4268C36973252D02AB430D682D02EF
:101460001D4301235B039C438B681B0323430C4CEC
:10147000A04208D00B4CA04205D00B4CA04202D099
:101480000A4CA04205D10124A403A2434C69A40143
:1014900022434260C56149680164036230BD0000B7
:1014A000002C014000400140004401400048014040
:1014B00030B5036A046A6408640004628469F02534
:1014C000AC43120122430A24A3430B43826103620B
:1014D00030BD30B5036A1024A34303628469036AF4
:1014E0000F252D031203AC432243A024A34309017B
:1014F00019438261016230BD10B503488088C0B2D3
:1015000000F044FA10BD0000204800400048704739
:101510001000002002E008C8121F08C1002AFAD1FA
:1015200070477047002001E001C1121F002AFBD163
:1015300070470000FFF7F4F9FFF788FCFFF790FD14
:10154000FFF7FCFCFFF756FDFFF728FC09240122FA
:10155000E40611022046FFF7CFF90122510220468E
:10156000FFF7CAF9FFF7FAFD044C0120214600F00D
:1015700031FA0A20FFF702F9F7E700000000C8423D
:1015800030B589B000243CA1FEF7D6FD6D4606E0DB
:10159000A100685038A10020641CFEF7CDFD002892
:1015A000F6D136A10098FEF7B9FD002813D035A179
:1015B0000098FEF7B3FD00284BD033A10098FEF74A
:1015C000ADFD002854D031A000F04CFA009800F096
:1015D00049FA09B030BD34A000F044FA019800F097
:1015E00041FA3AA000F03EFA39A000F03BFA029826
:1015F00000F038FA3BA000F035FA3BA000F032FAD8
:10160000039800F02FFA31A000F02CFA3BA000F074
:1016100029FA049800F026FA2CA000F023FA3DA045
:1016200000F020FA059800F01DFA28A000F01AFA40
:101630003EA000F017FA069800F014FA23A000F07C
:1016400011FA3FA000F00EFA079800F00BFA1FA065
:10165000BDE741A000F006FA019800F003FA1BA0D4
:1016600000F000FA0198FEF78BFD41494863B0E7AE
:1016700000F080F8ADE7000020000000627265779E
:101680000000000070776D003F0000000D0A4572F9
:10169000726F722072656164696E6720636F6D6D31
:1016A000616E640D0A0000000D0A427265772049E0
:1016B0006E69746174656420400D0A205761746519
:1016C000722054656D703A20000000000D0A000081
:1016D0002040205761746572205072657373757273
:1016E000653A20000D00000020402046726F7468AB
:1016F0002050726573737572653A20002040205740
:10170000617465722044697370656E7365643A2014
:101710000000000020402046726F74682044697306
:1017200070656E7365643A20000000002040204D13
:10173000696C6B2044697370656E7365643A200050
:10174000204020436F666665652044697370656E4E
:101750007365643A200000000D0A50574D204F7504
:101760007470757420746F204C4544204020000034
:101770000020004000B51AA000F074F91FA000F08E
:1017800071F926A000F06EF929A000F06BF92EA0E7
:1017900000F068F932A000F065F937A000F062F9B6
:1017A0003BA000F05FF940A000F05CF944A000F01D
:1017B00059F947A000F056F94AA000F053F94CA09F
:1017C00000F050F952A000F04DF955A000F04AF990
:1017D0005CA000F047F963A000F044F900BD0000F0
:1017E0000D0A2053455249414C20434F4D4D414E27
:1017F00044204755494445200D0A000009206272E3
:1018000065773A20627265772031203220332034A8
:101810002035203620370D0A000000000909203C41
:10182000776174657254656D703E200D0A0000008A
:101830000909203C77617465725072657373757223
:10184000653E200D0A0000000909203C66726F7495
:101850006850726573737572653E200D0A00000052
:101860000909203C776174657244697370656E7311
:1018700065643E200D0A00000909203C66726F7401
:101880006844697370656E7365643E200D0A0000DC
:101890000909203C6D696C6B44697370656E7365F2
:1018A000643E200D0A0000000909203C636F666653
:1018B000656544697370656E7365643E200D0A004A
:1018C000092070776D3A2070776D20310D0A000085
:1018D0000909203C647574794379636C653E200D79
:1018E0000A00000009203F3A203F200D0A000000B6
:1018F0000D0A2053544D3332204C45442053494760
:101900004E49464943414E4345200D0A0000000020
:1019100009205245443A2070776D200D0A000000DE
:101920000920475245454E3A206272657720636F21
:101930006D6D616E64207265636569766564200D06
:101940000A0000000920424C55453A2070776D206E
:10195000636F6D6D616E6420726563656976656441
:101960000D0A000009204F52414E47453A20696E4A
:10197000636F727265637420636F6D6D616E642056
:101980006F72206572726F72200D0A0070B50C4C78
:1019900000252178642904D90AA000F063F8257095
:1019A00070BD0B4A0D2805D05054491C217000F021
:1019B0004FF870BD555425700548FFF7E1FD70BD27
:1019C000000000204F564552464C4F570D0A00006C
:1019D00014000020F8B5002801DD012600E00026F3
:1019E000002800DA404204467F20C005FEF712FCC2
:1019F0001549FEF7D2FB154D0746002E20D00026D4
:101A00000DE008212846FEF773FF3846FEF740FC3C
:101A1000FEF7B4FE10212846FEF76AFF761CA642A8
:101A2000EFDBF8BD20212846FEF762FF3846FEF7BF
:101A30002FFCFEF7A3FE40212846FEF759FF761C37
:101A4000A642EFDBF8BD000000008C420004004815
:101A50000349CA691206FCD5014920310881704743
:101A60000048004000B503461878FFF7F1FF1878EA
:101A7000002801D05B1CF7E700BD0040404040401B
:101A80004040404041414141414040404040404051
:101A90004040404040404040404040050202020279
:101AA0000202020202020202020202202020202080
:101AB0002020202020020202020202029090909038
:101AC0009090101010101010101010101010101016
:101AD000101010101010020202020202888888887A
:101AE0008888080808080808080808080808080876
:101AF0000808080808080202020240007B1A0008D1
:101B0000201B00080000002014000000141500082D
:101B1000341B0008140000205C0500002415000898
:101B2000000000000000000000127A000000000029
:041B300000000000B1
:04000005080000C12E
:00000001FF
